{
  "contractName": "SupplyChain",
  "abi": [
    {
      "inputs": [],
      "stateMutability": "nonpayable",
      "type": "constructor"
    },
    {
      "anonymous": false,
      "inputs": [
        {
          "indexed": false,
          "internalType": "uint256",
          "name": "upc",
          "type": "uint256"
        }
      ],
      "name": "BoughtByDistributor",
      "type": "event"
    },
    {
      "anonymous": false,
      "inputs": [
        {
          "indexed": false,
          "internalType": "uint256",
          "name": "lotNumber",
          "type": "uint256"
        }
      ],
      "name": "BoughtByManufacturer",
      "type": "event"
    },
    {
      "anonymous": false,
      "inputs": [
        {
          "indexed": true,
          "internalType": "address",
          "name": "_account",
          "type": "address"
        }
      ],
      "name": "ConsumerAdded",
      "type": "event"
    },
    {
      "anonymous": false,
      "inputs": [
        {
          "indexed": true,
          "internalType": "address",
          "name": "_account",
          "type": "address"
        }
      ],
      "name": "ConsumerRemoved",
      "type": "event"
    },
    {
      "anonymous": false,
      "inputs": [
        {
          "indexed": true,
          "internalType": "address",
          "name": "_account",
          "type": "address"
        }
      ],
      "name": "DistributorAdded",
      "type": "event"
    },
    {
      "anonymous": false,
      "inputs": [
        {
          "indexed": true,
          "internalType": "address",
          "name": "_account",
          "type": "address"
        }
      ],
      "name": "DistributorRemoved",
      "type": "event"
    },
    {
      "anonymous": false,
      "inputs": [
        {
          "indexed": true,
          "internalType": "address",
          "name": "_account",
          "type": "address"
        }
      ],
      "name": "FarmerAdded",
      "type": "event"
    },
    {
      "anonymous": false,
      "inputs": [
        {
          "indexed": true,
          "internalType": "address",
          "name": "_account",
          "type": "address"
        }
      ],
      "name": "FarmerRemoved",
      "type": "event"
    },
    {
      "anonymous": false,
      "inputs": [
        {
          "indexed": false,
          "internalType": "uint256",
          "name": "lotNumber",
          "type": "uint256"
        }
      ],
      "name": "Harvested",
      "type": "event"
    },
    {
      "anonymous": false,
      "inputs": [
        {
          "indexed": true,
          "internalType": "address",
          "name": "_account",
          "type": "address"
        }
      ],
      "name": "ManufacturerAdded",
      "type": "event"
    },
    {
      "anonymous": false,
      "inputs": [
        {
          "indexed": true,
          "internalType": "address",
          "name": "_account",
          "type": "address"
        }
      ],
      "name": "ManufacturerRemoved",
      "type": "event"
    },
    {
      "anonymous": false,
      "inputs": [
        {
          "indexed": false,
          "internalType": "uint256",
          "name": "lotNumber",
          "type": "uint256"
        }
      ],
      "name": "Packed",
      "type": "event"
    },
    {
      "anonymous": false,
      "inputs": [
        {
          "indexed": false,
          "internalType": "uint256",
          "name": "upc",
          "type": "uint256"
        }
      ],
      "name": "PackedByManufacturer",
      "type": "event"
    },
    {
      "anonymous": false,
      "inputs": [
        {
          "indexed": false,
          "internalType": "uint256",
          "name": "upc",
          "type": "uint256"
        }
      ],
      "name": "Placed",
      "type": "event"
    },
    {
      "anonymous": false,
      "inputs": [
        {
          "indexed": false,
          "internalType": "uint256",
          "name": "upc",
          "type": "uint256"
        }
      ],
      "name": "Processed",
      "type": "event"
    },
    {
      "anonymous": false,
      "inputs": [
        {
          "indexed": false,
          "internalType": "uint256",
          "name": "upc",
          "type": "uint256"
        }
      ],
      "name": "Purchased",
      "type": "event"
    },
    {
      "anonymous": false,
      "inputs": [
        {
          "indexed": false,
          "internalType": "uint256",
          "name": "upc",
          "type": "uint256"
        }
      ],
      "name": "ReceivedByRetailer",
      "type": "event"
    },
    {
      "anonymous": false,
      "inputs": [
        {
          "indexed": true,
          "internalType": "address",
          "name": "_account",
          "type": "address"
        }
      ],
      "name": "RetailerAdded",
      "type": "event"
    },
    {
      "anonymous": false,
      "inputs": [
        {
          "indexed": true,
          "internalType": "address",
          "name": "_account",
          "type": "address"
        }
      ],
      "name": "RetailerRemoved",
      "type": "event"
    },
    {
      "anonymous": false,
      "inputs": [
        {
          "indexed": false,
          "internalType": "uint256",
          "name": "upc",
          "type": "uint256"
        }
      ],
      "name": "Shipped",
      "type": "event"
    },
    {
      "inputs": [],
      "name": "upc",
      "outputs": [
        {
          "internalType": "uint256",
          "name": "",
          "type": "uint256"
        }
      ],
      "stateMutability": "view",
      "type": "function",
      "constant": true
    },
    {
      "inputs": [
        {
          "internalType": "address",
          "name": "_account",
          "type": "address"
        }
      ],
      "name": "hasFarmerRole",
      "outputs": [
        {
          "internalType": "bool",
          "name": "",
          "type": "bool"
        }
      ],
      "stateMutability": "view",
      "type": "function",
      "constant": true
    },
    {
      "inputs": [
        {
          "internalType": "address",
          "name": "_account",
          "type": "address"
        }
      ],
      "name": "addFarmerRole",
      "outputs": [],
      "stateMutability": "nonpayable",
      "type": "function"
    },
    {
      "inputs": [
        {
          "internalType": "address",
          "name": "_account",
          "type": "address"
        }
      ],
      "name": "revokeFarmerRole",
      "outputs": [],
      "stateMutability": "nonpayable",
      "type": "function"
    },
    {
      "inputs": [
        {
          "internalType": "address",
          "name": "_account",
          "type": "address"
        }
      ],
      "name": "hasManufacturerRole",
      "outputs": [
        {
          "internalType": "bool",
          "name": "",
          "type": "bool"
        }
      ],
      "stateMutability": "view",
      "type": "function",
      "constant": true
    },
    {
      "inputs": [
        {
          "internalType": "address",
          "name": "_account",
          "type": "address"
        }
      ],
      "name": "addManufacturerRole",
      "outputs": [],
      "stateMutability": "nonpayable",
      "type": "function"
    },
    {
      "inputs": [
        {
          "internalType": "address",
          "name": "_account",
          "type": "address"
        }
      ],
      "name": "revokeManufacturerRole",
      "outputs": [],
      "stateMutability": "nonpayable",
      "type": "function"
    },
    {
      "inputs": [
        {
          "internalType": "address",
          "name": "_account",
          "type": "address"
        }
      ],
      "name": "hasDistributorRole",
      "outputs": [
        {
          "internalType": "bool",
          "name": "",
          "type": "bool"
        }
      ],
      "stateMutability": "view",
      "type": "function",
      "constant": true
    },
    {
      "inputs": [
        {
          "internalType": "address",
          "name": "_account",
          "type": "address"
        }
      ],
      "name": "addDistributorRole",
      "outputs": [],
      "stateMutability": "nonpayable",
      "type": "function"
    },
    {
      "inputs": [
        {
          "internalType": "address",
          "name": "_account",
          "type": "address"
        }
      ],
      "name": "revokeDistributorRole",
      "outputs": [],
      "stateMutability": "nonpayable",
      "type": "function"
    },
    {
      "inputs": [
        {
          "internalType": "address",
          "name": "_account",
          "type": "address"
        }
      ],
      "name": "hasRetailerRole",
      "outputs": [
        {
          "internalType": "bool",
          "name": "",
          "type": "bool"
        }
      ],
      "stateMutability": "view",
      "type": "function",
      "constant": true
    },
    {
      "inputs": [
        {
          "internalType": "address",
          "name": "_account",
          "type": "address"
        }
      ],
      "name": "addRetailerRole",
      "outputs": [],
      "stateMutability": "nonpayable",
      "type": "function"
    },
    {
      "inputs": [
        {
          "internalType": "address",
          "name": "_account",
          "type": "address"
        }
      ],
      "name": "revokeRetailerRole",
      "outputs": [],
      "stateMutability": "nonpayable",
      "type": "function"
    },
    {
      "inputs": [
        {
          "internalType": "address",
          "name": "_account",
          "type": "address"
        }
      ],
      "name": "hasConsumerRole",
      "outputs": [
        {
          "internalType": "bool",
          "name": "",
          "type": "bool"
        }
      ],
      "stateMutability": "view",
      "type": "function",
      "constant": true
    },
    {
      "inputs": [
        {
          "internalType": "address",
          "name": "_account",
          "type": "address"
        }
      ],
      "name": "addConsumerRole",
      "outputs": [],
      "stateMutability": "nonpayable",
      "type": "function"
    },
    {
      "inputs": [
        {
          "internalType": "address",
          "name": "_account",
          "type": "address"
        }
      ],
      "name": "revokeConsumerRole",
      "outputs": [],
      "stateMutability": "nonpayable",
      "type": "function"
    },
    {
      "inputs": [
        {
          "internalType": "string",
          "name": "_farmName",
          "type": "string"
        },
        {
          "internalType": "string",
          "name": "_farmLatitude",
          "type": "string"
        },
        {
          "internalType": "string",
          "name": "_farmLongitude",
          "type": "string"
        },
        {
          "internalType": "string",
          "name": "_materialName",
          "type": "string"
        },
        {
          "internalType": "uint256",
          "name": "_maxQuantity",
          "type": "uint256"
        }
      ],
      "name": "harvestMaterial",
      "outputs": [
        {
          "internalType": "uint256",
          "name": "",
          "type": "uint256"
        }
      ],
      "stateMutability": "nonpayable",
      "type": "function"
    },
    {
      "inputs": [
        {
          "internalType": "uint256",
          "name": "_lotNumber",
          "type": "uint256"
        },
        {
          "internalType": "uint256",
          "name": "_quantity",
          "type": "uint256"
        },
        {
          "internalType": "uint256",
          "name": "_price",
          "type": "uint256"
        }
      ],
      "name": "packMaterial",
      "outputs": [],
      "stateMutability": "nonpayable",
      "type": "function"
    },
    {
      "inputs": [
        {
          "internalType": "uint256",
          "name": "_lotNumber",
          "type": "uint256"
        }
      ],
      "name": "buyMaterial",
      "outputs": [],
      "stateMutability": "payable",
      "type": "function",
      "payable": true
    },
    {
      "inputs": [
        {
          "internalType": "uint256",
          "name": "_upc",
          "type": "uint256"
        },
        {
          "internalType": "uint256[]",
          "name": "_lotNumbers",
          "type": "uint256[]"
        },
        {
          "internalType": "string",
          "name": "_productName",
          "type": "string"
        }
      ],
      "name": "processProduct",
      "outputs": [],
      "stateMutability": "nonpayable",
      "type": "function"
    },
    {
      "inputs": [
        {
          "internalType": "uint256",
          "name": "_upc",
          "type": "uint256"
        },
        {
          "internalType": "uint256",
          "name": "_productBasePrice",
          "type": "uint256"
        }
      ],
      "name": "packProduct",
      "outputs": [],
      "stateMutability": "nonpayable",
      "type": "function"
    },
    {
      "inputs": [
        {
          "internalType": "uint256",
          "name": "_upc",
          "type": "uint256"
        }
      ],
      "name": "buyProduct",
      "outputs": [],
      "stateMutability": "payable",
      "type": "function",
      "payable": true
    },
    {
      "inputs": [
        {
          "internalType": "uint256",
          "name": "_upc",
          "type": "uint256"
        }
      ],
      "name": "shipProduct",
      "outputs": [],
      "stateMutability": "nonpayable",
      "type": "function"
    },
    {
      "inputs": [
        {
          "internalType": "uint256",
          "name": "_upc",
          "type": "uint256"
        }
      ],
      "name": "receiveProduct",
      "outputs": [],
      "stateMutability": "nonpayable",
      "type": "function"
    },
    {
      "inputs": [
        {
          "internalType": "uint256",
          "name": "_upc",
          "type": "uint256"
        },
        {
          "internalType": "uint256",
          "name": "_productFinalPrice",
          "type": "uint256"
        }
      ],
      "name": "placeProduct",
      "outputs": [],
      "stateMutability": "nonpayable",
      "type": "function"
    },
    {
      "inputs": [
        {
          "internalType": "uint256",
          "name": "_upc",
          "type": "uint256"
        }
      ],
      "name": "purchaseProduct",
      "outputs": [],
      "stateMutability": "payable",
      "type": "function",
      "payable": true
    },
    {
      "inputs": [
        {
          "internalType": "uint256",
          "name": "_lotNumber",
          "type": "uint256"
        }
      ],
      "name": "fetchMaterial",
      "outputs": [
        {
          "internalType": "string",
          "name": "farmName",
          "type": "string"
        },
        {
          "internalType": "string",
          "name": "farmLatitude",
          "type": "string"
        },
        {
          "internalType": "string",
          "name": "farmLongitude",
          "type": "string"
        },
        {
          "internalType": "string",
          "name": "materialName",
          "type": "string"
        },
        {
          "internalType": "uint256",
          "name": "harvestTime",
          "type": "uint256"
        }
      ],
      "stateMutability": "view",
      "type": "function",
      "constant": true
    },
    {
      "inputs": [
        {
          "internalType": "uint256",
          "name": "_upc",
          "type": "uint256"
        }
      ],
      "name": "fetchLengthMaterials",
      "outputs": [
        {
          "internalType": "uint256",
          "name": "n",
          "type": "uint256"
        }
      ],
      "stateMutability": "view",
      "type": "function",
      "constant": true
    },
    {
      "inputs": [
        {
          "internalType": "uint256",
          "name": "_upc",
          "type": "uint256"
        }
      ],
      "name": "fetchProductLots",
      "outputs": [
        {
          "internalType": "uint256[]",
          "name": "lotNumbers",
          "type": "uint256[]"
        }
      ],
      "stateMutability": "view",
      "type": "function",
      "constant": true
    },
    {
      "inputs": [
        {
          "internalType": "uint256",
          "name": "_upc",
          "type": "uint256"
        }
      ],
      "name": "fetchProduct",
      "outputs": [
        {
          "internalType": "uint256",
          "name": "upc1",
          "type": "uint256"
        },
        {
          "internalType": "uint256",
          "name": "productID",
          "type": "uint256"
        },
        {
          "internalType": "string",
          "name": "productName",
          "type": "string"
        },
        {
          "internalType": "uint256",
          "name": "productFinalPrice",
          "type": "uint256"
        }
      ],
      "stateMutability": "view",
      "type": "function",
      "constant": true
    }
  ],
  "bytecode": "0x608060405234801561001057600080fd5b50600380546001600160a01b03191633179055600160008190558080556002556133358061003f6000396000f3fe6080604052600436106101cd5760003560e01c806378a9122a116100f7578063a8a7acad11610095578063ef8da2aa11610064578063ef8da2aa14610533578063f61104b814610553578063fc42ac2c14610573578063fcec18bf146105a457600080fd5b8063a8a7acad146104bd578063ac2db09d146104dd578063b9ec37f8146104f3578063e7b8e21b1461051357600080fd5b80638642269e116100d15780638642269e146104395780639f48eb5b1461044c578063a2c756511461048a578063a896bdd7146104aa57600080fd5b806378a9122a146103cc5780637c34890f146103ec5780638290f8591461041957600080fd5b8063242b0f0b1161016f57806338e76a031161013e57806338e76a03146103595780633e13a75f1461036c5780634b2e5c291461038c5780636000ada1146103ac57600080fd5b8063242b0f0b146102d95780632927d1d9146102f957806329d7832814610319578063350fe57b1461033957600080fd5b80630fc7b343116101ab5780630fc7b3431461025957806317485f421461027957806318c8ea30146102995780631dbca97c146102b957600080fd5b806303ea0b5a146101d257806306ac2255146102075780630cb28a5314610229575b600080fd5b3480156101de57600080fd5b506101f26101ed366004612cac565b6105c4565b60405190151581526020015b60405180910390f35b34801561021357600080fd5b50610227610222366004612cdc565b6105fe565b005b34801561023557600080fd5b50610249610244366004612d08565b61081a565b6040516101fe9493929190612d6e565b34801561026557600080fd5b50610227610274366004612cac565b610ac8565b34801561028557600080fd5b50610227610294366004612cac565b610b87565b3480156102a557600080fd5b506102276102b4366004612cac565b610c48565b3480156102c557600080fd5b506102276102d4366004612d9e565b610d08565b3480156102e557600080fd5b506102276102f4366004612cac565b610e50565b34801561030557600080fd5b50610227610314366004612d08565b610f0e565b34801561032557600080fd5b50610227610334366004612d08565b611084565b34801561034557600080fd5b506101f2610354366004612cac565b6111d5565b610227610367366004612d08565b611210565b34801561037857600080fd5b50610227610387366004612cac565b611403565b34801561039857600080fd5b506102276103a7366004612d9e565b6114ba565b3480156103b857600080fd5b506101f26103c7366004612cac565b61162c565b3480156103d857600080fd5b506101f26103e7366004612cac565b611665565b3480156103f857600080fd5b5061040c610407366004612d08565b6116a1565b6040516101fe9190612dc0565b34801561042557600080fd5b50610227610434366004612cac565b61192f565b610227610447366004612d08565b6119e0565b34801561045857600080fd5b5061047c610467366004612d08565b6000908152600560205260409020600c015490565b6040519081526020016101fe565b34801561049657600080fd5b506102276104a5366004612ebb565b611c1a565b6102276104b8366004612d08565b611ee4565b3480156104c957600080fd5b506102276104d8366004612cac565b6120d9565b3480156104e957600080fd5b5061047c60005481565b3480156104ff57600080fd5b5061047c61050e366004612f8e565b61218c565b34801561051f57600080fd5b5061022761052e366004612cac565b6123fd565b34801561053f57600080fd5b5061022761054e366004612cac565b6124bf565b34801561055f57600080fd5b5061022761056e366004612cac565b612574565b34801561057f57600080fd5b5061059361058e366004612d08565b612623565b6040516101fe959493929190613043565b3480156105b057600080fd5b506101f26105bf366004612cac565b612a24565b60006001600160a01b0382166105d957600080fd5b506001600160a01b031660009081526006602052604090205462010000900460ff1690565b82600080828152600460205260409020600e015460ff166002811115610626576106266130a3565b146106885760405162461bcd60e51b815260206004820152602760248201527f546865204d6174657269616c206973206e6f7420696e204861727665737465646044820152662073746174652160c81b60648201526084015b60405180910390fd5b6000848152600460205260409020546001600160a01b03163381146106bf5760405162461bcd60e51b815260040161067f906130b9565b6000858152600460205260409020600a0154859085908111156107305760405162461bcd60e51b815260206004820152602360248201527f546865207175616e74697479207265717569726564206973206e6f7420656e6f6044820152620eaced60eb1b606482015260840161067f565b61073933612a24565b61077f5760405162461bcd60e51b81526020600482015260176024820152762cb7ba903732b2b2103a379031329030903330b936b2b960491b604482015260640161067f565b600087815260046020908152604091829020600b8101899055600c8101889055600e8101805460ff1916600117905591518981527f9b3b66e2380b690bae22c73ef1428fb0c91e72fe14a4b6defa13035214187aff910160405180910390a1506000828152600460205260409020600a01546107fb8282613119565b600093845260046020526040909320600a019290925550505050505050565b60008181526005602052604080822081516101e0810190925280546001600160a01b03166101a0830190815260018201805485946060948694859492939192849284916101c085019161086c90613130565b80601f016020809104026020016040519081016040528092919081815260200182805461089890613130565b80156108e55780601f106108ba576101008083540402835291602001916108e5565b820191906000526020600020905b8154815290600101906020018083116108c857829003601f168201915b505050919092525050508152604080516020818101835260028501546001600160a01b039081168352818501929092528251808201845260038601548316815283850152825190810190925260048401548116825260608301919091526005830154166080820152600682015460a0820152600782015460c0820152600882015460e08201526009820180546101009092019161098190613130565b80601f01602080910402602001604051908101604052809291908181526020018280546109ad90613130565b80156109fa5780601f106109cf576101008083540402835291602001916109fa565b820191906000526020600020905b8154815290600101906020018083116109dd57829003601f168201915b50505050508152602001600a8201548152602001600b8201548152602001600c8201805480602002602001604051908101604052809291908181526020018280548015610a6657602002820191906000526020600020905b815481526020019060010190808311610a52575b5050509183525050600d82015460209091019060ff166006811115610a8d57610a8d6130a3565b6006811115610a9e57610a9e6130a3565b90525060a081015160e0820151610100830151610140909301519199909850919650945092505050565b6003546001600160a01b03163314610af25760405162461bcd60e51b815260040161067f9061316a565b6001600160a01b038116610b185760405162461bcd60e51b815260040161067f906131b3565b610b218161162c565b610b3d5760405162461bcd60e51b815260040161067f906131ea565b6001600160a01b038116600081815260066020526040808220805461ff0019169055517f2fed5abf6a80d6dfe30b4895481b2fc5d7dce5f8f7b931832f4a2947d5040c7f9190a250565b6003546001600160a01b03163314610bb15760405162461bcd60e51b815260040161067f9061316a565b6001600160a01b038116610bd75760405162461bcd60e51b815260040161067f906131b3565b610be0816111d5565b610bfc5760405162461bcd60e51b815260040161067f906131ea565b6001600160a01b038116600081815260066020526040808220805463ff00000019169055517fdb7176e79cffef81cb01767dd0447a0b24bb72ca9778d4b245581086b2a7e6db9190a250565b6003546001600160a01b03163314610c725760405162461bcd60e51b815260040161067f9061316a565b6001600160a01b038116610c985760405162461bcd60e51b815260040161067f906131b3565b610ca1816105c4565b610cbd5760405162461bcd60e51b815260040161067f906131ea565b6001600160a01b038116600081815260066020526040808220805462ff000019169055517f126174f6cf49c81cdb4a9214c6b8f037bef55b4ec31e4fc776cea2a1c8a88d599190a250565b81600080828152600560205260409020600d015460ff166006811115610d3057610d306130a3565b14610d905760405162461bcd60e51b815260206004820152602a60248201527f5468652050726f64756374206973206e6f742079657420696e2050726f6365736044820152697365642073746174652160b01b606482015260840161067f565b600083815260056020819052604090912001546001600160a01b0316338114610dcb5760405162461bcd60e51b815260040161067f906130b9565b610dd43361162c565b610df05760405162461bcd60e51b815260040161067f90613232565b600084815260056020908152604091829020600a8101869055600d8101805460ff1916600117905591518681527f090f384267f8609b480a5aec2b9f44790666dde0be5128881197a665435889f691015b60405180910390a15050505050565b6003546001600160a01b03163314610e7a5760405162461bcd60e51b815260040161067f9061316a565b6001600160a01b038116610ea05760405162461bcd60e51b815260040161067f906131b3565b610ea981612a24565b610ec55760405162461bcd60e51b815260040161067f906131ea565b6001600160a01b038116600081815260066020526040808220805460ff19169055517fa5e0f060af304ab17dd418c7927e3da3ae7868189bf387aee09ab179ccc572f29190a250565b8060026000828152600560205260409020600d015460ff166006811115610f3757610f376130a3565b14610f9d5760405162461bcd60e51b815260206004820152603060248201527f5468652050726f64756374206973206e6f7420696e20426f756768744279446960448201526f737472696275746f722073746174652160801b606482015260840161067f565b600082815260056020819052604090912001546001600160a01b0316338114610fd85760405162461bcd60e51b815260040161067f906130b9565b610fe1336105c4565b61102d5760405162461bcd60e51b815260206004820152601c60248201527f596f75206e65656420746f2062652061206469737472696275746f7200000000604482015260640161067f565b600083815260056020908152604091829020600d8101805460ff1916600317905591518581527ff00b9a5725b80c54016f42114f6ed7792d22eecb116011c4afac29c57bef6c95910160405180910390a150505050565b8060036000828152600560205260409020600d015460ff1660068111156110ad576110ad6130a3565b146111065760405162461bcd60e51b8152602060048201526024808201527f5468652050726f64756374206973206e6f7420696e20536869707065642073746044820152636174652160e01b606482015260840161067f565b61110f336111d5565b6111575760405162461bcd60e51b81526020600482015260196024820152782cb7ba903732b2b2103a379031329030903932ba30b4b632b960391b604482015260640161067f565b60008281526005602081815260409283902091820180546001600160a01b0319908116339081179092556003840180549091169091179055600d8201805460ff19166004179055915184815290917f322f34e90f2269750b3e28178631d975cc678db36f21098fe548b7f755ce0bd0910160405180910390a1505050565b60006001600160a01b0382166111ea57600080fd5b506001600160a01b03166000908152600660205260409020546301000000900460ff1690565b8060056000828152600560205260409020600d015460ff166006811115611239576112396130a3565b146112925760405162461bcd60e51b815260206004820152602360248201527f5468652050726f64756374206973206e6f7420696e20506c616365642073746160448201526274652160e81b606482015260840161067f565b6000828152600560205260409020600b0154348111156112c45760405162461bcd60e51b815260040161067f90613269565b826112ce33611665565b61131a5760405162461bcd60e51b815260206004820152601960248201527f596f75206e65656420746f206265206120636f6e73756d657200000000000000604482015260640161067f565b60008481526005602081815260409283902091820180546001600160a01b0319908116339081179092556004840180549091169091179055600d8201805460ff19166006179055915186815290917f653d56639fee6b566a5c804764e9689de38645f0b733df89a36a1b7b42173dd8910160405180910390a1506000818152600560205260408120600b0154906113b18234613119565b6000848152600560205260408082206004015490519293506001600160a01b03169183156108fc0291849190818181858888f193505050501580156113fa573d6000803e3d6000fd5b50505050505050565b6003546001600160a01b0316331461142d5760405162461bcd60e51b815260040161067f9061316a565b6001600160a01b0381166114535760405162461bcd60e51b815260040161067f906131b3565b61145c81611665565b1561146657600080fd5b6001600160a01b038116600081815260066020526040808220805464ff000000001916640100000000179055517f28b26e7a3d20aedbc5f8f2ebf7da671c0491723a2b78f47a097b0e46dee071429190a250565b8160046000828152600560205260409020600d015460ff1660068111156114e3576114e36130a3565b146115485760405162461bcd60e51b815260206004820152602f60248201527f5468652050726f64756374206973206e6f7420696e205265636569766564427960448201526e52657461696c65722073746174652160881b606482015260840161067f565b600083815260056020819052604090912001546001600160a01b03163381146115835760405162461bcd60e51b815260040161067f906130b9565b61158c336111d5565b6115d45760405162461bcd60e51b81526020600482015260196024820152782cb7ba903732b2b2103a379031329030903932ba30b4b632b960391b604482015260640161067f565b600084815260056020818152604092839020600b8101879055600d8101805460ff1916909317909255915186815290917f44de2d07540d425d94a436148fbd87b44fa17f09d5f72caeee17b7b93af9a6049101610e41565b60006001600160a01b03821661164157600080fd5b506001600160a01b0316600090815260066020526040902054610100900460ff1690565b60006001600160a01b03821661167a57600080fd5b506001600160a01b0316600090815260066020526040902054640100000000900460ff1690565b60008181526005602052604080822081516101e0810190925280546001600160a01b03166101a083019081526001820180546060959493928492909184916101c08501916116ee90613130565b80601f016020809104026020016040519081016040528092919081815260200182805461171a90613130565b80156117675780601f1061173c57610100808354040283529160200191611767565b820191906000526020600020905b81548152906001019060200180831161174a57829003601f168201915b505050919092525050508152604080516020818101835260028501546001600160a01b039081168352818501929092528251808201845260038601548316815283850152825190810190925260048401548116825260608301919091526005830154166080820152600682015460a0820152600782015460c0820152600882015460e08201526009820180546101009092019161180390613130565b80601f016020809104026020016040519081016040528092919081815260200182805461182f90613130565b801561187c5780601f106118515761010080835404028352916020019161187c565b820191906000526020600020905b81548152906001019060200180831161185f57829003601f168201915b50505050508152602001600a8201548152602001600b8201548152602001600c82018054806020026020016040519081016040528092919081815260200182805480156118e857602002820191906000526020600020905b8154815260200190600101908083116118d4575b5050509183525050600d82015460209091019060ff16600681111561190f5761190f6130a3565b6006811115611920576119206130a3565b90525061016001519392505050565b6003546001600160a01b031633146119595760405162461bcd60e51b815260040161067f9061316a565b6001600160a01b03811661197f5760405162461bcd60e51b815260040161067f906131b3565b6119888161162c565b1561199257600080fd5b6001600160a01b038116600081815260066020526040808220805461ff001916610100179055517f561138658ca49a8540dc70dcfe64c9026c1c5b9344642242dd6562970f9c12789190a250565b8060016000828152600560205260409020600d015460ff166006811115611a0957611a096130a3565b14611a705760405162461bcd60e51b815260206004820152603160248201527f5468652050726f64756374206973206e6f7420696e205061636b656442794d616044820152706e7566616374757265722073746174652160781b606482015260840161067f565b6000828152600560205260409020600a015434811115611aa25760405162461bcd60e51b815260040161067f90613269565b82611aac336105c4565b611af85760405162461bcd60e51b815260206004820152601c60248201527f596f75206e65656420746f2062652061206469737472696275746f7200000000604482015260640161067f565b60008481526005602081905260408083209182018054336001600160a01b03199182168117909255600280850180549092169092179055600d8301805460ff19169091179055600a82015482549151929390926001600160a01b039092169183156108fc0291849190818181858888f19350505050158015611b7e573d6000803e3d6000fd5b506040518681527fb64a650bd16fdcc58820f555d97b554e91b54798dad96aa8edc7bfbe9485603a9060200160405180910390a150506000818152600560205260408120600a015490611bd18234613119565b6000848152600560205260408082206002015490519293506001600160a01b03169183156108fc0291849190818181858888f193505050501580156113fa573d6000803e3d6000fd5b8160005b8151811015611ce0576000828281518110611c3b57611c3b6132b8565b602090810291909101810151600081815260049092526040909120549091506001600160a01b03163314611ccd5760405162461bcd60e51b815260206004820152603360248201527f546865204d616e75666163747572657220646f6573206e6f74206f776e207468604482015272652063757272656e74204d6174657269616c2160681b606482015260840161067f565b5080611cd8816132ce565b915050611c1e565b50611cea3361162c565b611d065760405162461bcd60e51b815260040161067f90613232565b611d0e612a58565b336080820181905281515260a0810185905260015460c08201819052611d3490866132e7565b60e082015261016081018490526101008101839052600061018082015260018054611d5e916132e7565b600190815560008681526005602090815260409091208351805182546001600160a01b0319166001600160a01b039091161782558083015180518695939492938593611db09391850192910190612b15565b505050602082810151516002830180546001600160a01b039283166001600160a01b031991821617909155604085015151600385018054918416918316919091179055606085015151600485018054918416918316919091179055608085015160058501805491909316911617905560a0830151600683015560c0830151600783015560e083015160088301556101008301518051611e559260098501920190612b15565b50610120820151600a820155610140820151600b8201556101608201518051611e8891600c840191602090910190612b99565b50610180820151600d8201805460ff19166001836006811115611ead57611ead6130a3565b0217905550506040518681527f5afe3b1bf87069693c075da5c22a98d63d1aef98a30dbbe538d0781a98b77ee59150602001610e41565b8060016000828152600460205260409020600e015460ff166002811115611f0d57611f0d6130a3565b14611f665760405162461bcd60e51b8152602060048201526024808201527f546865204d6174657269616c206973206e6f7420696e205061636b65642073746044820152636174652160e01b606482015260840161067f565b6000828152600460205260409020600c015434811115611f985760405162461bcd60e51b815260040161067f90613269565b82611fa23361162c565b611fbe5760405162461bcd60e51b815260040161067f90613232565b60008481526004602052604080822080546001600160a01b0319908116339081178355600583018054909216179055600e8101805460ff19166002179055600c81015460018201549251919390926001600160a01b0316916108fc84150291849190818181858888f1935050505015801561203d573d6000803e3d6000fd5b506040518681527f129d151bafca5ab64a4f669845c185b6461bbe592ce9dada4cfac3bb9d3562de9060200160405180910390a150506000818152600460205260408120600c0154906120908234613119565b6000848152600460205260408082206005015490519293506001600160a01b03169183156108fc0291849190818181858888f193505050501580156113fa573d6000803e3d6000fd5b6003546001600160a01b031633146121035760405162461bcd60e51b815260040161067f9061316a565b6001600160a01b0381166121295760405162461bcd60e51b815260040161067f906131b3565b612132816105c4565b1561213c57600080fd5b6001600160a01b038116600081815260066020526040808220805462ff0000191662010000179055517fddbf200aa634dc3fb81cfd68583dd1040d1c751d335e1d86b631bde3e977fea89190a250565b600061219733612a24565b6121dd5760405162461bcd60e51b81526020600482015260176024820152762cb7ba903732b2b2103a379031329030903330b936b2b960491b604482015260640161067f565b6121e5612bd3565b33808252602080830180519290925281510188905280516040018790525160600185905260a0810184905260c081018390526002546080820181905242610120830181905260009161223791906132e7565b6060830181905260025490915061224f9060016132e7565b60025560006101408301819052506000818152600460209081526040909120835181546001600160a01b03199081166001600160a01b03928316178355858401518051600185018054909316931692909217815581840151805187956122bc926002870192910190612b15565b50604082015180516122d8916002840191602090910190612b15565b50606082015180516122f4916003840191602090910190612b15565b505050604082015180516005830180546001600160a01b0319166001600160a01b0390921691909117815560208083015180516123379260068701920190612b15565b505050606082015160078201556080820151600882015560a08201518051612369916009840191602090910190612b15565b5060c0820151600a82015560e0820151600b820155610100820151600c820155610120820151600d820155610140820151600e8201805460ff191660018360028111156123b8576123b86130a3565b0217905550506040518281527f8e55ccfc9778ff8eba1646d765cf1982537ce0f9257054a17b48aad745250183915060200160405180910390a1979650505050505050565b6003546001600160a01b031633146124275760405162461bcd60e51b815260040161067f9061316a565b6001600160a01b03811661244d5760405162461bcd60e51b815260040161067f906131b3565b61245681611665565b6124725760405162461bcd60e51b815260040161067f906131ea565b6001600160a01b038116600081815260066020526040808220805464ff0000000019169055517fe3f5ed5f263f1f01764a96edfc7d025f511ec5f7d180e8816908b78bcf74f0989190a250565b6003546001600160a01b031633146124e95760405162461bcd60e51b815260040161067f9061316a565b6001600160a01b03811661250f5760405162461bcd60e51b815260040161067f906131b3565b612518816111d5565b1561252257600080fd5b6001600160a01b038116600081815260066020526040808220805463ff00000019166301000000179055517f71ae26cad02663e3d92efd6ec56031a80d74a20c0ab4183faa8bf262261c9baa9190a250565b6003546001600160a01b0316331461259e5760405162461bcd60e51b815260040161067f9061316a565b6001600160a01b0381166125c45760405162461bcd60e51b815260040161067f906131b3565b6125cd81612a24565b156125d757600080fd5b6001600160a01b038116600081815260066020526040808220805460ff19166001179055517f2e0ded4123377a3c2bc9a26f1717655a129e2f20752924d42e730ec89c83dbd09190a250565b600081815260046020908152604080832081516101608101835281546001600160a01b039081168252835160808101909452600183018054909116845260028301805460609788978897889792968796909593948684019492939192918401919061268d90613130565b80601f01602080910402602001604051908101604052809291908181526020018280546126b990613130565b80156127065780601f106126db57610100808354040283529160200191612706565b820191906000526020600020905b8154815290600101906020018083116126e957829003601f168201915b5050505050815260200160028201805461271f90613130565b80601f016020809104026020016040519081016040528092919081815260200182805461274b90613130565b80156127985780601f1061276d57610100808354040283529160200191612798565b820191906000526020600020905b81548152906001019060200180831161277b57829003601f168201915b505050505081526020016003820180546127b190613130565b80601f01602080910402602001604051908101604052809291908181526020018280546127dd90613130565b801561282a5780601f106127ff5761010080835404028352916020019161282a565b820191906000526020600020905b81548152906001019060200180831161280d57829003601f168201915b505050919092525050508152604080518082019091526005830180546001600160a01b031682526006840180546020948501948401919061286a90613130565b80601f016020809104026020016040519081016040528092919081815260200182805461289690613130565b80156128e35780601f106128b8576101008083540402835291602001916128e3565b820191906000526020600020905b8154815290600101906020018083116128c657829003601f168201915b5050505050815250508152602001600782015481526020016008820154815260200160098201805461291490613130565b80601f016020809104026020016040519081016040528092919081815260200182805461294090613130565b801561298d5780601f106129625761010080835404028352916020019161298d565b820191906000526020600020905b81548152906001019060200180831161297057829003601f168201915b5050509183525050600a8201546020820152600b8201546040820152600c8201546060820152600d8201546080820152600e82015460a09091019060ff1660028111156129dc576129dc6130a3565b60028111156129ed576129ed6130a3565b90525060208181015190810151604082015160609092015160a084015161012090940151919b929a50985091965090945092505050565b60006001600160a01b038216612a3957600080fd5b506001600160a01b031660009081526006602052604090205460ff1690565b604080516101e0810190915260006101a0820190815260606101c08301528190815260408051602081810190925260008152910190815260408051602081810190925260008152910190815260408051602081810190925260008152910190815260200160006001600160a01b031681526020016000815260200160008152602001600081526020016060815260200160008152602001600081526020016060815260200160006006811115612b1057612b106130a3565b905290565b828054612b2190613130565b90600052602060002090601f016020900481019282612b435760008555612b89565b82601f10612b5c57805160ff1916838001178555612b89565b82800160010185558215612b89579182015b82811115612b89578251825591602001919060010190612b6e565b50612b95929150612c97565b5090565b828054828255906000526020600020908101928215612b895791602002820182811115612b89578251825591602001919060010190612b6e565b60405180610160016040528060006001600160a01b03168152602001612c23604051806080016040528060006001600160a01b031681526020016060815260200160608152602001606081525090565b8152602001612c4e604051806040016040528060006001600160a01b03168152602001606081525090565b81526020016000815260200160008152602001606081526020016000815260200160008152602001600081526020016000815260200160006002811115612b1057612b106130a3565b5b80821115612b955760008155600101612c98565b600060208284031215612cbe57600080fd5b81356001600160a01b0381168114612cd557600080fd5b9392505050565b600080600060608486031215612cf157600080fd5b505081359360208301359350604090920135919050565b600060208284031215612d1a57600080fd5b5035919050565b6000815180845260005b81811015612d4757602081850181015186830182015201612d2b565b81811115612d59576000602083870101525b50601f01601f19169290920160200192915050565b848152836020820152608060408201526000612d8d6080830185612d21565b905082606083015295945050505050565b60008060408385031215612db157600080fd5b50508035926020909101359150565b6020808252825182820181905260009190848201906040850190845b81811015612df857835183529284019291840191600101612ddc565b50909695505050505050565b634e487b7160e01b600052604160045260246000fd5b604051601f8201601f1916810167ffffffffffffffff81118282101715612e4357612e43612e04565b604052919050565b600082601f830112612e5c57600080fd5b813567ffffffffffffffff811115612e7657612e76612e04565b612e89601f8201601f1916602001612e1a565b818152846020838601011115612e9e57600080fd5b816020850160208301376000918101602001919091529392505050565b600080600060608486031215612ed057600080fd5b8335925060208085013567ffffffffffffffff80821115612ef057600080fd5b818701915087601f830112612f0457600080fd5b813581811115612f1657612f16612e04565b8060051b612f25858201612e1a565b918252838101850191858101908b841115612f3f57600080fd5b948601945b83861015612f5d57853582529486019490860190612f44565b97505050506040870135925080831115612f7657600080fd5b5050612f8486828701612e4b565b9150509250925092565b600080600080600060a08688031215612fa657600080fd5b853567ffffffffffffffff80821115612fbe57600080fd5b612fca89838a01612e4b565b96506020880135915080821115612fe057600080fd5b612fec89838a01612e4b565b9550604088013591508082111561300257600080fd5b61300e89838a01612e4b565b9450606088013591508082111561302457600080fd5b5061303188828901612e4b565b95989497509295608001359392505050565b60a08152600061305660a0830188612d21565b82810360208401526130688188612d21565b9050828103604084015261307c8187612d21565b905082810360608401526130908186612d21565b9150508260808301529695505050505050565b634e487b7160e01b600052602160045260246000fd5b6020808252602a908201527f54686973206163636f756e74206973206e6f7420746865206f776e6572206f666040820152692074686973206974656d60b01b606082015260800190565b634e487b7160e01b600052601160045260246000fd5b60008282101561312b5761312b613103565b500390565b600181811c9082168061314457607f821691505b60208210810361316457634e487b7160e01b600052602260045260246000fd5b50919050565b60208082526029908201527f4f6e6c7920746865206f776e65722063616e20706572666f726d20746869732060408201526837b832b930ba34b7b760b91b606082015260800190565b6020808252601e908201527f416464726573732063616e6e6f74206265207a65726f20616464726573730000604082015260600190565b60208082526028908201527f54686973206164647265737320646f6573206e6f7420686176652074686973206040820152671c9bdb19481e595d60c21b606082015260800190565b6020808252601d908201527f596f75206e65656420746f2062652061206d616e756661637475726572000000604082015260600190565b6020808252602f908201527f54686520616d6f756e742073656e74206973206e6f742073756666696369656e60408201526e7420666f722074686520707269636560881b606082015260800190565b634e487b7160e01b600052603260045260246000fd5b6000600182016132e0576132e0613103565b5060010190565b600082198211156132fa576132fa613103565b50019056fea26469706673582212202bbc576eb0f377479f59b563c577e16e3a36ce67c810dc38d865781b1cce0b8464736f6c634300080d0033",
  "immutableReferences": {},
  "source": "// SPDX-License-Identifier: MIT\r\npragma solidity ^0.8.13;\r\n\r\nimport './Struct.sol';\r\n\r\ncontract SupplyChain {\r\n    uint public upc;\r\n    uint sku;\r\n    uint mID;\r\n    address payable contractOwner;\r\n\r\n    mapping (uint => Struct.Material) materials;\r\n    mapping (uint => Struct.Product) products;\r\n    mapping(address => Struct.Roles) roles;\r\n\r\n    constructor () {\r\n        contractOwner = payable(msg.sender);\r\n        upc = 1;\r\n        sku = 1;\r\n        mID = 1;\r\n    }\r\n\r\n    //<----------------------       MANAGING ROLES      ---------------------->\r\n\r\n    //Modifier for owner only functions\r\n    modifier onlyOwner() {\r\n        require(msg.sender == contractOwner, \"Only the owner can perform this operation\");\r\n        _;\r\n    }\r\n\r\n    //Farmer\r\n    event FarmerAdded(address indexed _account);\r\n    event FarmerRemoved(address indexed _account);\r\n\r\n    function hasFarmerRole(address _account) public view returns (bool) {\r\n        require(_account != address(0));\r\n        return roles[_account].Farmer;\r\n    }\r\n\r\n    function addFarmerRole(address _account) public onlyOwner {\r\n        require(_account != address(0), \"Address cannot be zero address\");\r\n        require(!hasFarmerRole(_account));\r\n        roles[_account].Farmer = true;\r\n        emit FarmerAdded(_account);\r\n    }\r\n\r\n    function revokeFarmerRole(address _account) public onlyOwner {\r\n        require(_account != address(0), \"Address cannot be zero address\");\r\n        require(hasFarmerRole(_account), \"This address does not have this role yet\");\r\n        roles[_account].Farmer = false;\r\n        emit FarmerRemoved(_account);\r\n    }\r\n\r\n    //Manufacturer\r\n    event ManufacturerAdded(address indexed _account);\r\n    event ManufacturerRemoved(address indexed _account);\r\n\r\n    function hasManufacturerRole(address _account) public view returns (bool) {\r\n        require(_account != address(0));\r\n        return roles[_account].Manufacturer;\r\n    }\r\n\r\n    function addManufacturerRole(address _account) public onlyOwner {\r\n        require(_account != address(0), \"Address cannot be zero address\");\r\n        require(!hasManufacturerRole(_account));\r\n        roles[_account].Manufacturer = true;\r\n        emit ManufacturerAdded(_account);\r\n    }\r\n\r\n    function revokeManufacturerRole(address _account) public onlyOwner {\r\n        require(_account != address(0), \"Address cannot be zero address\");\r\n        require(hasManufacturerRole(_account), \"This address does not have this role yet\");\r\n        roles[_account].Manufacturer = false;\r\n        emit ManufacturerRemoved(_account);\r\n    }\r\n\r\n    //Distributor\r\n    event DistributorAdded(address indexed _account);\r\n    event DistributorRemoved(address indexed _account);\r\n\r\n    function hasDistributorRole(address _account) public view returns (bool) {\r\n        require(_account != address(0));\r\n        return roles[_account].Distributor;\r\n    }\r\n\r\n    function addDistributorRole(address _account) public onlyOwner {\r\n        require(_account != address(0), \"Address cannot be zero address\");\r\n        require(!hasDistributorRole(_account));\r\n        roles[_account].Distributor = true;\r\n        emit DistributorAdded(_account);\r\n    }\r\n\r\n    function revokeDistributorRole(address _account) public onlyOwner {\r\n        require(_account != address(0), \"Address cannot be zero address\");\r\n        require(hasDistributorRole(_account), \"This address does not have this role yet\");\r\n        roles[_account].Distributor = false;\r\n        emit DistributorRemoved(_account);\r\n    }\r\n\r\n    //Retailer\r\n    event RetailerAdded(address indexed _account);\r\n    event RetailerRemoved(address indexed _account);\r\n\r\n    function hasRetailerRole(address _account) public view returns (bool) {\r\n        require(_account != address(0));\r\n        return roles[_account].Retailer;\r\n    }\r\n\r\n    function addRetailerRole(address _account) public onlyOwner {\r\n        require(_account != address(0), \"Address cannot be zero address\");\r\n        require(!hasRetailerRole(_account));\r\n        roles[_account].Retailer = true;\r\n        emit RetailerAdded(_account);\r\n    }\r\n\r\n    function revokeRetailerRole(address _account) public onlyOwner {\r\n        require(_account != address(0), \"Address cannot be zero address\");\r\n        require(hasRetailerRole(_account), \"This address does not have this role yet\");\r\n        roles[_account].Retailer = false;\r\n        emit RetailerRemoved(_account);\r\n    }\r\n  \r\n    //Consumer\r\n    event ConsumerAdded(address indexed _account);\r\n    event ConsumerRemoved(address indexed _account);\r\n\r\n    function hasConsumerRole(address _account) public view returns (bool) {\r\n        require(_account != address(0));\r\n        return roles[_account].Consumer;\r\n    }\r\n\r\n    function addConsumerRole(address _account) public onlyOwner {\r\n        require(_account != address(0), \"Address cannot be zero address\");\r\n        require(!hasConsumerRole(_account));\r\n        roles[_account].Consumer = true;\r\n        emit ConsumerAdded(_account);\r\n    }\r\n\r\n    function revokeConsumerRole(address _account) public onlyOwner {\r\n        require(_account != address(0), \"Address cannot be zero address\");\r\n        require(hasConsumerRole(_account), \"This address does not have this role yet\");\r\n        roles[_account].Consumer = false;\r\n        emit ConsumerRemoved(_account);\r\n    }\r\n\r\n    //<----------------------       DEFINING EVENTS      ---------------------->\r\n\r\n    event Harvested(uint lotNumber);\r\n    event Packed(uint lotNumber);\r\n    event BoughtByManufacturer(uint lotNumber);\r\n    event Processed(uint upc);\r\n    event PackedByManufacturer(uint upc);\r\n    event BoughtByDistributor(uint upc);\r\n    event Shipped(uint upc);\r\n    event ReceivedByRetailer(uint upc);\r\n    event Placed(uint upc);\r\n    event Purchased(uint upc);\r\n\r\n    //<----------------------       FUNCTION MODIFIERS      ---------------------->\r\n\r\n    // Define a modifer that verifies the Caller\r\n    modifier verifyCaller (address _address) {\r\n        require(msg.sender == _address, \"This account is not the owner of this item\");\r\n        _;\r\n    }\r\n\r\n    // Define a modifier that checks if the paid amount is sufficient to cover the price\r\n    modifier paidEnough(uint _price) {\r\n        require(msg.value >= _price, \"The amount sent is not sufficient for the price\");\r\n        _;\r\n    }\r\n\r\n    modifier verifyQuantity(uint _lotNumber, uint _quantity) {\r\n        require(materials[_lotNumber].materialMaxQuantity >= _quantity, \"The quantity required is not enough\");\r\n        _;\r\n        uint maxQuantity = materials[_lotNumber].materialMaxQuantity;\r\n        materials[_lotNumber].materialMaxQuantity = maxQuantity - _quantity;\r\n    }\r\n\r\n    // Define a modifier that checks the price and refunds the remaining balance\r\n    modifier checkValueForManufacturer(uint _lotNumber) {\r\n        _;\r\n        uint price = materials[_lotNumber].materialPrice;\r\n        uint amountToReturn = msg.value - price;\r\n        materials[_lotNumber].manufacturer.manufacturer.transfer(amountToReturn);\r\n    }\r\n\r\n    // Define a modifier that checks the price and refunds the remaining balance\r\n    modifier checkValueForDistributor(uint _upc) {\r\n        _;\r\n        uint price = products[_upc].productBasePrice;\r\n        uint amountToReturn = msg.value - price;\r\n        products[_upc].distributor.distributor.transfer(amountToReturn);\r\n    }\r\n\r\n    // Define a modifier that checks the price and refunds the remaining balance\r\n    // to the Consumer\r\n    modifier checkValueForConsumer(uint _upc) {\r\n        _;\r\n        uint _price = products[_upc].productFinalPrice;\r\n        uint amountToReturn = msg.value - _price;\r\n        products[_upc].consumer.consumer.transfer(amountToReturn);\r\n    }\r\n\r\n    modifier checkMaterialsOwner(uint[] memory _lotNumbers) {\r\n        for(uint i=0; i < _lotNumbers.length; i++) {\r\n        uint rmID = _lotNumbers[i];\r\n        require(materials[rmID].owner == msg.sender, \"The Manufacturer does not own the current Material!\");\r\n        }\r\n        _;\r\n    }\r\n\r\n    modifier harvested(uint _lotNumber) {\r\n        require(materials[_lotNumber].mState == Struct.MaterialState.Harvested, \"The Material is not in Harvested state!\");\r\n        _;\r\n    }\r\n\r\n    modifier packed(uint _lotNumber) {\r\n        require(materials[_lotNumber].mState == Struct.MaterialState.Packed, \"The Material is not in Packed state!\");\r\n        _;\r\n    }\r\n\r\n    modifier processed(uint _upc) {\r\n        require(products[_upc].pState == Struct.ProductState.Processed, \"The Product is not yet in Processed state!\");\r\n        _;\r\n    }\r\n\r\n    modifier packed_by_manufacturer(uint _upc) {\r\n        require(products[_upc].pState == Struct.ProductState.PackedByManufacturer, \"The Product is not in PackedByManufacturer state!\");\r\n        _;\r\n    }\r\n\r\n    modifier bought_by_distributor(uint _upc) {\r\n        require(products[_upc].pState == Struct.ProductState.BoughtByDistributor, \"The Product is not in BoughtByDistributor state!\");\r\n        _;\r\n    }\r\n\r\n    modifier shipped(uint _upc) {\r\n        require(products[_upc].pState == Struct.ProductState.Shipped, \"The Product is not in Shipped state!\");\r\n        _;\r\n    }\r\n\r\n    modifier received_by_retailer(uint _upc) {\r\n        require(products[_upc].pState == Struct.ProductState.ReceivedByRetailer, \"The Product is not in ReceivedByRetailer state!\");\r\n        _;\r\n    }\r\n\r\n    modifier placed(uint _upc) {\r\n        require(products[_upc].pState == Struct.ProductState.Placed, \"The Product is not in Placed state!\");\r\n        _;\r\n    }\r\n\r\n    modifier purchased(uint _upc) {\r\n        require(products[_upc].pState == Struct.ProductState.Purchased, \"The Product is not in Purchased state!\");\r\n        _;\r\n    }\r\n\r\n    //<----------------------       FUNCTIONS      ---------------------->\r\n\r\n    function harvestMaterial(string  memory _farmName,  \r\n                            string  memory _farmLatitude,\r\n                            string  memory _farmLongitude,\r\n                            string  memory _materialName,\r\n                            uint    _maxQuantity) \r\n                            public \r\n                            returns (uint)\r\n    {\r\n        require(hasFarmerRole(msg.sender), 'You need to be a farmer');\r\n        // Assign new Material fields\r\n        Struct.Material memory newMaterial;\r\n        newMaterial.owner = msg.sender;\r\n        newMaterial.farmer.farmer = payable(msg.sender);\r\n        newMaterial.farmer.farmerName = _farmName;\r\n        newMaterial.farmer.farmerLatitude = _farmLatitude;\r\n        newMaterial.farmer.farmerLongitude = _farmLongitude;\r\n        newMaterial.materialName = _materialName;\r\n        newMaterial.materialMaxQuantity = _maxQuantity;\r\n        // Assign unique lot number based on progreessive number and timestamp\r\n        newMaterial.materialID = mID;\r\n        newMaterial.harvestTime = block.timestamp;\r\n        uint rmID = mID + newMaterial.harvestTime;\r\n        newMaterial.lotNumber = rmID;\r\n        // Increase progressive number \r\n        mID = mID + 1;\r\n        // Setting state\r\n        newMaterial.mState = Struct.MaterialState.Harvested;\r\n        // Adding new Item to map\r\n        materials[rmID] = newMaterial;\r\n        // Emit the appropriate event\r\n        emit Harvested(rmID);\r\n        return (rmID);\r\n    }\r\n\r\n    function packMaterial(uint _lotNumber,\r\n                            uint _quantity,\r\n                            uint _price)\r\n                            public \r\n                            harvested(_lotNumber) \r\n                            verifyCaller(materials[_lotNumber].owner) \r\n                            verifyQuantity(_lotNumber, _quantity)\r\n    {\r\n        require(hasFarmerRole(msg.sender), 'You need to be a farmer');\r\n        // Update the appropriate fields\r\n        Struct.Material storage existingMaterial = materials[_lotNumber];\r\n        existingMaterial.materialQuantity = _quantity;\r\n        existingMaterial.materialPrice = _price;\r\n        existingMaterial.mState = Struct.MaterialState.Packed;\r\n        // Emit the appropriate event\r\n        emit Packed(_lotNumber);\r\n    }\r\n\r\n    // Use the above defined modifiers to check if the item is available for sale, if the buyer has paid enough,\r\n    // and any excess ether sent is refunded back to the buyer\r\n    function buyMaterial(uint _lotNumber) \r\n                        public \r\n                        payable  \r\n                        packed(_lotNumber) \r\n                        paidEnough(materials[_lotNumber].materialPrice) \r\n                        checkValueForManufacturer(_lotNumber)\r\n        {\r\n        require(hasManufacturerRole(msg.sender), 'You need to be a manufacturer');\r\n        // Update the appropriate fields - ownerID, distributorID, itemState\r\n        Struct.Material storage existingMaterial = materials[_lotNumber];\r\n        existingMaterial.owner = msg.sender;\r\n        existingMaterial.manufacturer.manufacturer = payable(msg.sender);\r\n        existingMaterial.mState = Struct.MaterialState.BoughtByManufacturer;\r\n        // Transfer money to farmer\r\n        uint price = materials[_lotNumber].materialPrice;\r\n        materials[_lotNumber].farmer.farmer.transfer(price);\r\n        // emit the appropriate event\r\n        emit BoughtByManufacturer(_lotNumber);\r\n    }\r\n\r\n\r\n    function processProduct(uint    _upc,\r\n                            uint[]  memory _lotNumbers,\r\n                            string  memory _productName)\r\n                            public\r\n                            checkMaterialsOwner(_lotNumbers)\r\n    {\r\n        require(hasManufacturerRole(msg.sender), 'You need to be a manufacturer');\r\n        Struct.Product memory newProduct;\r\n        newProduct.owner = msg.sender;\r\n        newProduct.manufacturer.manufacturer = payable(msg.sender);\r\n        newProduct.upc = _upc;\r\n        newProduct.sku = sku;\r\n        newProduct.productID = _upc + sku;\r\n        newProduct.materialsUsed = _lotNumbers;\r\n        newProduct.productName = _productName;\r\n        newProduct.pState = Struct.ProductState.Processed;\r\n        // Increment sku\r\n        sku = sku + 1;\r\n        // Add newProduct to mapping\r\n        products[_upc] = newProduct;\r\n        // Emit proper event\r\n        emit Processed(_upc);\r\n    }\r\n\r\n\r\n    function packProduct(uint _upc,\r\n                        uint _productBasePrice)\r\n                        public\r\n                        processed(_upc)\r\n                        verifyCaller(products[_upc].owner) \r\n    {\r\n        require(hasManufacturerRole(msg.sender), 'You need to be a manufacturer');\r\n        Struct.Product storage existingProduct = products[_upc];\r\n        existingProduct.productBasePrice = _productBasePrice;\r\n        existingProduct.pState = Struct.ProductState.PackedByManufacturer;\r\n        emit PackedByManufacturer(_upc);\r\n    }\r\n\r\n\r\n    function buyProduct(uint _upc) \r\n                        public\r\n                        payable\r\n                        packed_by_manufacturer(_upc)\r\n                        paidEnough(products[_upc].productBasePrice) \r\n                        checkValueForDistributor(_upc)\r\n    {\r\n        require(hasDistributorRole(msg.sender), 'You need to be a distributor');\r\n        // Update the appropriate fields\r\n        Struct.Product storage existingProduct = products[_upc];\r\n        existingProduct.owner = msg.sender;\r\n        existingProduct.distributor.distributor = payable(msg.sender);\r\n        existingProduct.pState = Struct.ProductState.BoughtByDistributor;\r\n        // Transfer money to farmer\r\n        uint productPrice = products[_upc].productBasePrice;\r\n        products[_upc].manufacturer.manufacturer.transfer(productPrice);\r\n        // Emit the appropriate event\r\n        emit BoughtByDistributor(_upc);\r\n    }\r\n\r\n\r\n    function shipProduct(uint _upc) \r\n                        public\r\n                        bought_by_distributor(_upc)\r\n                        verifyCaller(products[_upc].owner)\r\n    {\r\n        require(hasDistributorRole(msg.sender), 'You need to be a distributor');\r\n        // Update the appropriate fields\r\n        Struct.Product storage existingProduct = products[_upc];\r\n        existingProduct.pState = Struct.ProductState.Shipped;\r\n        // Emit the appropriate event\r\n        emit Shipped(_upc);\r\n    }\r\n\r\n\r\n    function receiveProduct(uint _upc) \r\n                            public\r\n                            shipped(_upc)\r\n    {\r\n        require(hasRetailerRole(msg.sender), 'You need to be a retailer');\r\n        // Update the appropriate fields - ownerID, retailerID, itemState\r\n        Struct.Product storage existingProduct = products[_upc];\r\n        existingProduct.owner = msg.sender;\r\n        existingProduct.retailer.retailer = payable(msg.sender);\r\n        existingProduct.pState = Struct.ProductState.ReceivedByRetailer;\r\n        // Emit the appropriate event\r\n        emit ReceivedByRetailer(_upc);\r\n    }\r\n\r\n\r\n    function placeProduct(uint _upc,\r\n                          uint _productFinalPrice)\r\n                          public\r\n                          received_by_retailer(_upc)\r\n                          verifyCaller(products[_upc].owner)\r\n    {\r\n        require(hasRetailerRole(msg.sender), 'You need to be a retailer');\r\n        // Update the appropriate fields - ownerID, retailerID, itemState\r\n        Struct.Product storage existingProduct = products[_upc];\r\n        existingProduct.productFinalPrice = _productFinalPrice;\r\n        existingProduct.pState = Struct.ProductState.Placed;\r\n        // Emit the appropriate event\r\n        emit Placed(_upc);\r\n    }\r\n\r\n    // Define a function 'purchaseItem' that allows the consumer to mark an item 'Purchased'\r\n    // Use the above modifiers to check if the item is received\r\n    function purchaseProduct(uint _upc) \r\n                            public \r\n                            payable \r\n                            placed(_upc)\r\n                            paidEnough(products[_upc].productFinalPrice)\r\n                            checkValueForConsumer(_upc)\r\n    {\r\n        require(hasConsumerRole(msg.sender), 'You need to be a consumer');\r\n        // Update the appropriate fields - ownerID, consumerID, itemState\r\n        Struct.Product storage existingProduct = products[_upc];\r\n        existingProduct.owner = msg.sender;\r\n        existingProduct.consumer.consumer = payable(msg.sender);\r\n        existingProduct.pState = Struct.ProductState.Purchased;\r\n        // Emit the appropriate event\r\n        emit Purchased(_upc);\r\n    }\r\n\r\n    // Define a function 'fetchItemBufferTwo' that fetches the data\r\n    function fetchMaterial(uint _lotNumber) public view returns \r\n    (\r\n    string memory farmName,\r\n    string memory farmLatitude,\r\n    string memory farmLongitude,\r\n    string memory materialName,\r\n    uint    harvestTime\r\n    ) \r\n    {\r\n        // Assign values to the 9 parameters\r\n    Struct.Material memory existingMaterial = materials[_lotNumber];\r\n    farmName = existingMaterial.farmer.farmerName;\r\n    farmLatitude = existingMaterial.farmer.farmerLatitude;\r\n    farmLongitude = existingMaterial.farmer.farmerLongitude;\r\n    materialName = existingMaterial.materialName;\r\n    harvestTime = existingMaterial.harvestTime;\r\n    \r\n    return \r\n    (\r\n    farmName,\r\n    farmLatitude,\r\n    farmLongitude,\r\n    materialName,\r\n    harvestTime\r\n    );\r\n    }\r\n\r\n    function fetchLengthMaterials(uint _upc) public view returns\r\n    (\r\n        uint n\r\n    )\r\n    {\r\n        return products[_upc].materialsUsed.length;\r\n    }\r\n\r\n\r\n    function fetchProductLots(uint _upc) public view returns \r\n    (\r\n        uint[] memory lotNumbers\r\n    )\r\n    {\r\n        Struct.Product memory existingProduct = products[_upc];\r\n        lotNumbers = existingProduct.materialsUsed;\r\n        return (lotNumbers);\r\n    }\r\n\r\n    function fetchProduct(uint _upc) public view returns\r\n    (\r\n        uint upc1,\r\n        uint productID,\r\n        string memory productName,\r\n        uint productFinalPrice\r\n    )\r\n    {\r\n        Struct.Product memory existingProduct = products[_upc];\r\n        return (\r\n            existingProduct.upc,\r\n            existingProduct.productID,\r\n            existingProduct.productName,\r\n            existingProduct.productFinalPrice\r\n        );\r\n    }\r\n\r\n}",
  "sourcePath": "C:\\Users\\francesco.farinola\\OneDrive - Alma Mater Studiorum Universit di Bologna\\Documents\\GitHub\\SupplyChainReact\\contracts\\SupplyChain.sol",
  "compiler": {
    "name": "solc",
    "version": "0.8.13+commit.abaa5c0e.Emscripten.clang"
  },
  "schemaVersion": "3.4.7",
  "updatedAt": "2022-05-13T13:11:59.196Z",
  "networkType": "ethereum",
  "devdoc": {
    "kind": "dev",
    "methods": {},
    "version": 1
  },
  "userdoc": {
    "kind": "user",
    "methods": {},
    "version": 1
  }
}